{
  "_format": "hh-sol-artifact-1",
  "contractName": "OrcaVoteManager",
  "sourceName": "contracts/OrcaVoteManager.sol",
  "abi": [
    {
      "inputs": [
        {
          "internalType": "contract OrcaPodManager",
          "name": "_podManager",
          "type": "address"
        }
      ],
      "stateMutability": "nonpayable",
      "type": "constructor"
    },
    {
      "anonymous": false,
      "inputs": [
        {
          "indexed": true,
          "internalType": "uint256",
          "name": "podId",
          "type": "uint256"
        },
        {
          "indexed": true,
          "internalType": "uint256",
          "name": "proposalId",
          "type": "uint256"
        },
        {
          "indexed": true,
          "internalType": "address",
          "name": "member",
          "type": "address"
        },
        {
          "indexed": false,
          "internalType": "bool",
          "name": "yesOrNo",
          "type": "bool"
        }
      ],
      "name": "CastVote",
      "type": "event"
    },
    {
      "anonymous": false,
      "inputs": [
        {
          "indexed": false,
          "internalType": "uint256",
          "name": "proposalId",
          "type": "uint256"
        },
        {
          "indexed": false,
          "internalType": "uint256",
          "name": "podId",
          "type": "uint256"
        },
        {
          "indexed": false,
          "internalType": "address",
          "name": "contractAddress",
          "type": "address"
        },
        {
          "indexed": false,
          "internalType": "bytes4",
          "name": "functionSignature",
          "type": "bytes4"
        },
        {
          "indexed": false,
          "internalType": "bytes32[5]",
          "name": "functionParams",
          "type": "bytes32[5]"
        },
        {
          "indexed": false,
          "internalType": "uint256",
          "name": "comparisonLogic",
          "type": "uint256"
        },
        {
          "indexed": false,
          "internalType": "uint256",
          "name": "comparisonValue",
          "type": "uint256"
        },
        {
          "indexed": false,
          "internalType": "address",
          "name": "proposer",
          "type": "address"
        }
      ],
      "name": "CreateProposal",
      "type": "event"
    },
    {
      "anonymous": false,
      "inputs": [
        {
          "indexed": false,
          "internalType": "uint256",
          "name": "podId",
          "type": "uint256"
        },
        {
          "indexed": false,
          "internalType": "uint256",
          "name": "votingPeriod",
          "type": "uint256"
        },
        {
          "indexed": false,
          "internalType": "uint256",
          "name": "minQuorum",
          "type": "uint256"
        }
      ],
      "name": "CreateVoteStrategy",
      "type": "event"
    },
    {
      "anonymous": false,
      "inputs": [
        {
          "indexed": true,
          "internalType": "uint256",
          "name": "podId",
          "type": "uint256"
        },
        {
          "indexed": true,
          "internalType": "uint256",
          "name": "proposalId",
          "type": "uint256"
        },
        {
          "indexed": false,
          "internalType": "address",
          "name": "member",
          "type": "address"
        },
        {
          "indexed": true,
          "internalType": "bool",
          "name": "yesOrNo",
          "type": "bool"
        }
      ],
      "name": "FinalizeProposal",
      "type": "event"
    },
    {
      "inputs": [
        {
          "internalType": "uint256",
          "name": "_podId",
          "type": "uint256"
        },
        {
          "internalType": "address",
          "name": "_contractAddress",
          "type": "address"
        },
        {
          "internalType": "bytes4",
          "name": "_functionSignature",
          "type": "bytes4"
        },
        {
          "internalType": "bytes32[5]",
          "name": "_functionParams",
          "type": "bytes32[5]"
        },
        {
          "internalType": "uint256",
          "name": "_comparisonLogic",
          "type": "uint256"
        },
        {
          "internalType": "uint256",
          "name": "_comparisonValue",
          "type": "uint256"
        }
      ],
      "name": "createProposal",
      "outputs": [],
      "stateMutability": "nonpayable",
      "type": "function"
    },
    {
      "inputs": [
        {
          "internalType": "uint256",
          "name": "_podId",
          "type": "uint256"
        },
        {
          "internalType": "uint256",
          "name": "_votingPeriod",
          "type": "uint256"
        },
        {
          "internalType": "uint256",
          "name": "_minQuorum",
          "type": "uint256"
        }
      ],
      "name": "createVotingStrategy",
      "outputs": [],
      "stateMutability": "nonpayable",
      "type": "function"
    },
    {
      "inputs": [
        {
          "internalType": "uint256",
          "name": "_podId",
          "type": "uint256"
        }
      ],
      "name": "finalizeVote",
      "outputs": [],
      "stateMutability": "nonpayable",
      "type": "function"
    },
    {
      "inputs": [
        {
          "internalType": "uint256",
          "name": "",
          "type": "uint256"
        },
        {
          "internalType": "address",
          "name": "",
          "type": "address"
        }
      ],
      "name": "userHasVotedByProposal",
      "outputs": [
        {
          "internalType": "bool",
          "name": "",
          "type": "bool"
        }
      ],
      "stateMutability": "view",
      "type": "function"
    },
    {
      "inputs": [
        {
          "internalType": "uint256",
          "name": "_podId",
          "type": "uint256"
        },
        {
          "internalType": "bool",
          "name": "_yesOrNo",
          "type": "bool"
        }
      ],
      "name": "vote",
      "outputs": [],
      "stateMutability": "nonpayable",
      "type": "function"
    },
    {
      "inputs": [
        {
          "internalType": "uint256",
          "name": "",
          "type": "uint256"
        }
      ],
      "name": "voteProposalByPod",
      "outputs": [
        {
          "internalType": "uint256",
          "name": "proposalId",
          "type": "uint256"
        },
        {
          "internalType": "uint256",
          "name": "proposalBlock",
          "type": "uint256"
        },
        {
          "internalType": "uint256",
          "name": "approveVotes",
          "type": "uint256"
        },
        {
          "internalType": "uint256",
          "name": "rejectVotes",
          "type": "uint256"
        },
        {
          "internalType": "bool",
          "name": "pending",
          "type": "bool"
        },
        {
          "internalType": "address",
          "name": "contractAddress",
          "type": "address"
        },
        {
          "internalType": "bytes4",
          "name": "functionSignature",
          "type": "bytes4"
        },
        {
          "internalType": "uint256",
          "name": "comparisonLogic",
          "type": "uint256"
        },
        {
          "internalType": "uint256",
          "name": "comparisonValue",
          "type": "uint256"
        }
      ],
      "stateMutability": "view",
      "type": "function"
    },
    {
      "inputs": [
        {
          "internalType": "uint256",
          "name": "",
          "type": "uint256"
        }
      ],
      "name": "voteStrategiesByPod",
      "outputs": [
        {
          "internalType": "uint256",
          "name": "votingPeriod",
          "type": "uint256"
        },
        {
          "internalType": "uint256",
          "name": "minQuorum",
          "type": "uint256"
        }
      ],
      "stateMutability": "view",
      "type": "function"
    }
  ],
  "bytecode": "0x6080604052600060025534801561001557600080fd5b5060405161108b38038061108b8339818101604052602081101561003857600080fd5b8101908080519060200190929190505050336000806101000a81548173ffffffffffffffffffffffffffffffffffffffff021916908373ffffffffffffffffffffffffffffffffffffffff16021790555080600160006101000a81548173ffffffffffffffffffffffffffffffffffffffff021916908373ffffffffffffffffffffffffffffffffffffffff16021790555050610fb1806100da6000396000f3fe608060405234801561001057600080fd5b506004361061007d5760003560e01c806381ec8c561161005b57806381ec8c56146101da578063c1fa3b2e1461028b578063c9d27afe146102b9578063e42a31bb146102f35761007d565b80635293c748146100825780636bcb2f6b146100c45780637c6ab0261461010d575b600080fd5b6100c26004803603606081101561009857600080fd5b81019080803590602001909291908035906020019092919080359060200190929190505050610357565b005b6100f0600480360360208110156100da57600080fd5b810190808035906020019092919050505061040e565b604051808381526020018281526020019250505060405180910390f35b6101d8600480360361014081101561012457600080fd5b8101908080359060200190929190803573ffffffffffffffffffffffffffffffffffffffff16906020019092919080357bffffffffffffffffffffffffffffffffffffffffffffffffffffffff191690602001909291908060a001906005806020026040519081016040528092919082600560200280828437600081840152601f19601f82011690508083019250505050505091929192908035906020019092919080359060200190929190505050610432565b005b610206600480360360208110156101f057600080fd5b81019080803590602001909291905050506107db565b604051808a815260200189815260200188815260200187815260200186151581526020018573ffffffffffffffffffffffffffffffffffffffff168152602001847bffffffffffffffffffffffffffffffffffffffffffffffffffffffff19168152602001838152602001828152602001995050505050505050505060405180910390f35b6102b7600480360360208110156102a157600080fd5b8101908080359060200190929190505050610863565b005b6102f1600480360360408110156102cf57600080fd5b8101908080359060200190929190803515159060200190929190505050610c42565b005b61033f6004803603604081101561030957600080fd5b8101908080359060200190929190803573ffffffffffffffffffffffffffffffffffffffff169060200190929190505050610eca565b60405180821515815260200191505060405180910390f35b6040518060400160405280838152602001828152506003600085815260200190815260200160002060008201518160000155602082015181600101559050507fa73a17197f6d087ce0f66b3817665849460efbd8d147adbe1d85ce656738a79a836003600086815260200190815260200160002060000154600360008781526020019081526020016000206001015460405180848152602001838152602001828152602001935050505060405180910390a1505050565b60036020528060005260406000206000915090508060000154908060010154905082565b6004600087815260200190815260200160002060040160009054906101000a900460ff16156104ac576040517f08c379a0000000000000000000000000000000000000000000000000000000008152600401808060200182810382526025815260200180610f576025913960400191505060405180910390fd5b600160025401600281905550604051806101400160405280600254815260200160036000898152602001908152602001600020600001544301815260200160008152602001600081526020016001151581526020018673ffffffffffffffffffffffffffffffffffffffff168152602001857bffffffffffffffffffffffffffffffffffffffffffffffffffffffff1916815260200184815260200183815260200182815250600460008881526020019081526020016000206000820151816000015560208201518160010155604082015181600201556060820151816003015560808201518160040160006101000a81548160ff02191690831515021790555060a08201518160040160016101000a81548173ffffffffffffffffffffffffffffffffffffffff021916908373ffffffffffffffffffffffffffffffffffffffff16021790555060c08201518160040160156101000a81548163ffffffff021916908360e01c021790555060e08201518160050190600561062f929190610ef9565b5061010082015181600a015561012082015181600b01559050507f1fd1bcde774a562beecf34282a76fbca2db7a71bb7757241eedfcddfcb921578600460008881526020019081526020016000206000015487600460008a815260200190815260200160002060040160019054906101000a900473ffffffffffffffffffffffffffffffffffffffff16600460008b815260200190815260200160002060040160159054906101000a900460e01b600460008c8152602001908152602001600020600501600460008d8152602001908152602001600020600a0154600460008e8152602001908152602001600020600b015433604051808981526020018881526020018773ffffffffffffffffffffffffffffffffffffffff168152602001867bffffffffffffffffffffffffffffffffffffffffffffffffffffffff191681526020018560058015610797576020028201915b815481526020019060010190808311610783575b50508481526020018381526020018273ffffffffffffffffffffffffffffffffffffffff1681526020019850505050505050505060405180910390a1505050505050565b60046020528060005260406000206000915090508060000154908060010154908060020154908060030154908060040160009054906101000a900460ff16908060040160019054906101000a900473ffffffffffffffffffffffffffffffffffffffff16908060040160159054906101000a900460e01b9080600a01549080600b0154905089565b60006004600083815260200190815260200160002090508060040160009054906101000a900460ff166108fe576040517f08c379a000000000000000000000000000000000000000000000000000000000815260040180806020018281038252601c8152602001807f5468657265206973206e6f2063757272656e742070726f706f73616c0000000081525060200191505060405180910390fd5b80600101544311610977576040517f08c379a000000000000000000000000000000000000000000000000000000000815260040180806020018281038252601f8152602001807f54686520766f74696e6720706572696f6420686173206e6f7420656e6465640081525060200191505060405180910390fd5b6003600083815260200190815260200160002060010154816003015482600201540110610c3e57600081600201541115610bc85760008160040160006101000a81548160ff021916908315150217905550600160009054906101000a900473ffffffffffffffffffffffffffffffffffffffff1673ffffffffffffffffffffffffffffffffffffffff1663c3c56af7836004600086815260200190815260200160002060040160019054906101000a900473ffffffffffffffffffffffffffffffffffffffff166004600087815260200190815260200160002060040160159054906101000a900460e01b6004600088815260200190815260200160002060050160046000898152602001908152602001600020600a0154600460008a8152602001908152602001600020600b01546040518763ffffffff1660e01b8152600401808781526020018673ffffffffffffffffffffffffffffffffffffffff168152602001857bffffffffffffffffffffffffffffffffffffffffffffffffffffffff191681526020018460058015610b24576020028201915b815481526020019060010190808311610b10575b50508381526020018281526020019650505050505050600060405180830381600087803b158015610b5457600080fd5b505af1158015610b68573d6000803e3d6000fd5b50505050600115158160000154837f3ea246a2867dc3ef0a1f58eab097281abbf859ae77d455f6b0133e12ec1b19fa33604051808273ffffffffffffffffffffffffffffffffffffffff16815260200191505060405180910390a4610c3d565b60008160040160006101000a81548160ff021916908315150217905550600015158160000154837f3ea246a2867dc3ef0a1f58eab097281abbf859ae77d455f6b0133e12ec1b19fa33604051808273ffffffffffffffffffffffffffffffffffffffff16815260200191505060405180910390a45b5b5050565b60006004600084815260200190815260200160002090508060040160009054906101000a900460ff16610cdd576040517f08c379a000000000000000000000000000000000000000000000000000000000815260040180806020018281038252601c8152602001807f5468657265206973206e6f2063757272656e742070726f706f73616c0000000081525060200191505060405180910390fd5b600560008260000154815260200190815260200160002060003373ffffffffffffffffffffffffffffffffffffffff1673ffffffffffffffffffffffffffffffffffffffff16815260200190815260200160002060009054906101000a900460ff1615610db2576040517f08c379a000000000000000000000000000000000000000000000000000000000815260040180806020018281038252601d8152602001807f54686973206d656d6265722068617320616c726561647920766f74656400000081525060200191505060405180910390fd5b6001600560008360000154815260200190815260200160002060003373ffffffffffffffffffffffffffffffffffffffff1673ffffffffffffffffffffffffffffffffffffffff16815260200190815260200160002060006101000a81548160ff0219169083151502179055508115610e4c5760016004600085815260200190815260200160002060020154018160020181905550610e6f565b600160046000858152602001908152602001600020600301540181600301819055505b3373ffffffffffffffffffffffffffffffffffffffff168160000154847f8df957bc9ccb90cbc1f73fc8f866b2f64fa25c5581d4e1603c5cdc974aa2592d8560405180821515815260200191505060405180910390a4505050565b60056020528160005260406000206020528060005260406000206000915091509054906101000a900460ff1681565b8260058101928215610f28579160200282015b82811115610f27578251825591602001919060010190610f0c565b5b509050610f359190610f39565b5090565b5b80821115610f52576000816000905550600101610f3a565b509056fe54686572652069732063757272656e746c7920612070726f706f73616c2070656e64696e67a2646970667358221220769b988c5f9cb0adcf61c34080f94ef00bf0e6e55687c9a8a68c284f9f70074364736f6c63430007040033",
  "linkReferences": {},
  "deployedLinkReferences": {}
}