{
  "_format": "hh-sol-artifact-1",
  "contractName": "OrcaProtocol",
  "sourceName": "contracts/OrcaProtocol.sol",
  "abi": [
    {
      "inputs": [
        {
          "internalType": "address",
          "name": "_orcaMemberTokenAddress",
          "type": "address"
        }
      ],
      "stateMutability": "nonpayable",
      "type": "constructor"
    },
    {
      "anonymous": false,
      "inputs": [
        {
          "indexed": false,
          "internalType": "uint256",
          "name": "podId",
          "type": "uint256"
        }
      ],
      "name": "CreatePod",
      "type": "event"
    },
    {
      "anonymous": false,
      "inputs": [
        {
          "indexed": false,
          "internalType": "address",
          "name": "contractAddress",
          "type": "address"
        }
      ],
      "name": "PodManagerAddress",
      "type": "event"
    },
    {
      "anonymous": false,
      "inputs": [
        {
          "indexed": false,
          "internalType": "address",
          "name": "contractAddress",
          "type": "address"
        }
      ],
      "name": "VoteManagerAddress",
      "type": "event"
    },
    {
      "inputs": [
        {
          "internalType": "uint256",
          "name": "_podId",
          "type": "uint256"
        },
        {
          "internalType": "uint256",
          "name": "_totalSupply",
          "type": "uint256"
        },
        {
          "internalType": "address",
          "name": "_contractAddress",
          "type": "address"
        },
        {
          "internalType": "bytes4",
          "name": "_functionSignature",
          "type": "bytes4"
        },
        {
          "internalType": "bytes32[5]",
          "name": "_functionParams",
          "type": "bytes32[5]"
        },
        {
          "internalType": "uint256",
          "name": "_comparisonLogic",
          "type": "uint256"
        },
        {
          "internalType": "uint256",
          "name": "_comparisonValue",
          "type": "uint256"
        },
        {
          "internalType": "uint256",
          "name": "_votingPeriod",
          "type": "uint256"
        },
        {
          "internalType": "uint256",
          "name": "_minQuorum",
          "type": "uint256"
        }
      ],
      "name": "createPod",
      "outputs": [],
      "stateMutability": "nonpayable",
      "type": "function"
    },
    {
      "inputs": [],
      "name": "orcaMemberToken",
      "outputs": [
        {
          "internalType": "contract OrcaMemberToken",
          "name": "",
          "type": "address"
        }
      ],
      "stateMutability": "view",
      "type": "function"
    },
    {
      "inputs": [],
      "name": "orcaPodManager",
      "outputs": [
        {
          "internalType": "contract OrcaPodManager",
          "name": "",
          "type": "address"
        }
      ],
      "stateMutability": "view",
      "type": "function"
    },
    {
      "inputs": [],
      "name": "orcaVoteManager",
      "outputs": [
        {
          "internalType": "contract OrcaVoteManager",
          "name": "",
          "type": "address"
        }
      ],
      "stateMutability": "view",
      "type": "function"
    }
  ],
  "bytecode": "0x608060405234801561001057600080fd5b506040516135723803806135728339818101604052602081101561003357600080fd5b810190808051906020019092919050505080600260006101000a81548173ffffffffffffffffffffffffffffffffffffffff021916908373ffffffffffffffffffffffffffffffffffffffff160217905550600260009054906101000a900473ffffffffffffffffffffffffffffffffffffffff166040516100b49061037f565b808273ffffffffffffffffffffffffffffffffffffffff168152602001915050604051809103906000f0801580156100f0573d6000803e3d6000fd5b506000806101000a81548173ffffffffffffffffffffffffffffffffffffffff021916908373ffffffffffffffffffffffffffffffffffffffff1602179055507fa81d2b22d82a4ca573a3b71ad76bbd30f3e083c1c3cab2503167a91f93e13d9e60008054906101000a900473ffffffffffffffffffffffffffffffffffffffff16604051808273ffffffffffffffffffffffffffffffffffffffff16815260200191505060405180910390a160008054906101000a900473ffffffffffffffffffffffffffffffffffffffff166040516101ca9061038c565b808273ffffffffffffffffffffffffffffffffffffffff168152602001915050604051809103906000f080158015610206573d6000803e3d6000fd5b50600160006101000a81548173ffffffffffffffffffffffffffffffffffffffff021916908373ffffffffffffffffffffffffffffffffffffffff1602179055507febe9bb2f07a46ead97a3c1c2f0428d59e84317ef08e7124edd1b4fd29430107d600160009054906101000a900473ffffffffffffffffffffffffffffffffffffffff16604051808273ffffffffffffffffffffffffffffffffffffffff16815260200191505060405180910390a160008054906101000a900473ffffffffffffffffffffffffffffffffffffffff1673ffffffffffffffffffffffffffffffffffffffff1663b67b6df3600160009054906101000a900473ffffffffffffffffffffffffffffffffffffffff166040518263ffffffff1660e01b8152600401808273ffffffffffffffffffffffffffffffffffffffff168152602001915050600060405180830381600087803b15801561036157600080fd5b505af1158015610375573d6000803e3d6000fd5b5050505050610399565b611ba18061094683390190565b61108b806124e783390190565b61059e806103a86000396000f3fe608060405234801561001057600080fd5b506004361061004c5760003560e01c806366f8bdf114610051578063c87a436414610085578063fe9f8278146100b9578063ffc62f4a1461016d575b600080fd5b6100596101a1565b604051808273ffffffffffffffffffffffffffffffffffffffff16815260200191505060405180910390f35b61008d6101c7565b604051808273ffffffffffffffffffffffffffffffffffffffff16815260200191505060405180910390f35b61016b60048036036101a08110156100d057600080fd5b810190808035906020019092919080359060200190929190803573ffffffffffffffffffffffffffffffffffffffff16906020019092919080357bffffffffffffffffffffffffffffffffffffffffffffffffffffffff191690602001909291908060a001909192919290803590602001909291908035906020019092919080359060200190929190803590602001909291905050506101ed565b005b610175610544565b604051808273ffffffffffffffffffffffffffffffffffffffff16815260200191505060405180910390f35b600260009054906101000a900473ffffffffffffffffffffffffffffffffffffffff1681565b600160009054906101000a900473ffffffffffffffffffffffffffffffffffffffff1681565b600260009054906101000a900473ffffffffffffffffffffffffffffffffffffffff1673ffffffffffffffffffffffffffffffffffffffff1663731133e960008054906101000a900473ffffffffffffffffffffffffffffffffffffffff168b8b6040518060400160405280600a81526020017f62797465732074657374000000000000000000000000000000000000000000008152506040518563ffffffff1660e01b8152600401808573ffffffffffffffffffffffffffffffffffffffff16815260200184815260200183815260200180602001828103825283818151815260200191508051906020019080838360005b838110156102fb5780820151818401526020810190506102e0565b50505050905090810190601f1680156103285780820380516001836020036101000a031916815260200191505b5095505050505050600060405180830381600087803b15801561034a57600080fd5b505af115801561035e573d6000803e3d6000fd5b5050505060008054906101000a900473ffffffffffffffffffffffffffffffffffffffff1673ffffffffffffffffffffffffffffffffffffffff16630fac7c758a89898989896040518763ffffffff1660e01b8152600401808781526020018673ffffffffffffffffffffffffffffffffffffffff168152602001857bffffffffffffffffffffffffffffffffffffffffffffffffffffffff1916815260200184600560200280828437600081840152601f19601f8201169050808301925050508381526020018281526020019650505050505050600060405180830381600087803b15801561044d57600080fd5b505af1158015610461573d6000803e3d6000fd5b50505050600160009054906101000a900473ffffffffffffffffffffffffffffffffffffffff1673ffffffffffffffffffffffffffffffffffffffff16635293c7488a84846040518463ffffffff1660e01b8152600401808481526020018381526020018281526020019350505050600060405180830381600087803b1580156104ea57600080fd5b505af11580156104fe573d6000803e3d6000fd5b505050507f2d5eeb2cf7a3216b59bde08d3c9416a7e4da4b8d3064705f7ea767bed09b941f896040518082815260200191505060405180910390a1505050505050505050565b60008054906101000a900473ffffffffffffffffffffffffffffffffffffffff168156fea2646970667358221220b218ae31b0fe3a293d6711fc6869809056222b347fb13435cc0ccd6427622f1b64736f6c63430007040033608060405234801561001057600080fd5b50604051611ba1380380611ba18339818101604052602081101561003357600080fd5b810190808051906020019092919050505061005a6301ffc9a760e01b61010160201b60201c565b61007963bc197c8160e01b63f23a6e6160e01b1861010160201b60201c565b80600160006101000a81548173ffffffffffffffffffffffffffffffffffffffff021916908373ffffffffffffffffffffffffffffffffffffffff16021790555033600260006101000a81548173ffffffffffffffffffffffffffffffffffffffff021916908373ffffffffffffffffffffffffffffffffffffffff16021790555050610209565b63ffffffff60e01b817bffffffffffffffffffffffffffffffffffffffffffffffffffffffff1916141561019d576040517f08c379a000000000000000000000000000000000000000000000000000000000815260040180806020018281038252601c8152602001807f4552433136353a20696e76616c696420696e746572666163652069640000000081525060200191505060405180910390fd5b6001600080837bffffffffffffffffffffffffffffffffffffffffffffffffffffffff19167bffffffffffffffffffffffffffffffffffffffffffffffffffffffff1916815260200190815260200160002060006101000a81548160ff02191690831515021790555050565b611989806102186000396000f3fe608060405234801561001057600080fd5b50600436106100a95760003560e01c8063bdcb1a8111610071578063bdcb1a81146104a6578063c24013dd146104e8578063c3c56af714610574578063d5f3948814610641578063da1bcdf014610675578063f23a6e61146106a9576100a9565b806301ffc9a7146100ae5780630e227d34146101115780630fac7c751461013f578063b67b6df31461020c578063bc197c8114610250575b600080fd5b6100f9600480360360208110156100c457600080fd5b8101908080357bffffffffffffffffffffffffffffffffffffffffffffffffffffffff191690602001909291905050506107eb565b60405180821515815260200191505060405180910390f35b61013d6004803603602081101561012757600080fd5b8101908080359060200190929190505050610852565b005b61020a600480360361014081101561015657600080fd5b8101908080359060200190929190803573ffffffffffffffffffffffffffffffffffffffff16906020019092919080357bffffffffffffffffffffffffffffffffffffffffffffffffffffffff191690602001909291908060a001906005806020026040519081016040528092919082600560200280828437600081840152601f19601f82011690508083019250505050505091929192908035906020019092919080359060200190929190505050610fa5565b005b61024e6004803603602081101561022257600080fd5b81019080803573ffffffffffffffffffffffffffffffffffffffff1690602001909291905050506112aa565b005b610471600480360360a081101561026657600080fd5b81019080803573ffffffffffffffffffffffffffffffffffffffff169060200190929190803573ffffffffffffffffffffffffffffffffffffffff169060200190929190803590602001906401000000008111156102c357600080fd5b8201836020820111156102d557600080fd5b803590602001918460208302840111640100000000831117156102f757600080fd5b919080806020026020016040519081016040528093929190818152602001838360200280828437600081840152601f19601f8201169050808301925050505050505091929192908035906020019064010000000081111561035757600080fd5b82018360208201111561036957600080fd5b8035906020019184602083028401116401000000008311171561038b57600080fd5b919080806020026020016040519081016040528093929190818152602001838360200280828437600081840152601f19601f820116905080830192505050505050509192919290803590602001906401000000008111156103eb57600080fd5b8201836020820111156103fd57600080fd5b8035906020019184600183028401116401000000008311171561041f57600080fd5b91908080601f016020809104026020016040519081016040528093929190818152602001838380828437600081840152601f19601f820116905080830192505050505050509192919290505050611394565b60405180827bffffffffffffffffffffffffffffffffffffffffffffffffffffffff1916815260200191505060405180910390f35b6104d2600480360360208110156104bc57600080fd5b810190808035906020019092919050505061140d565b6040518082815260200191505060405180910390f35b610514600480360360208110156104fe57600080fd5b8101908080359060200190929190505050611425565b604051808573ffffffffffffffffffffffffffffffffffffffff168152602001847bffffffffffffffffffffffffffffffffffffffffffffffffffffffff1916815260200183815260200182815260200194505050505060405180910390f35b61063f600480360361014081101561058b57600080fd5b8101908080359060200190929190803573ffffffffffffffffffffffffffffffffffffffff16906020019092919080357bffffffffffffffffffffffffffffffffffffffffffffffffffffffff191690602001909291908060a001906005806020026040519081016040528092919082600560200280828437600081840152601f19601f82011690508083019250505050505091929192908035906020019092919080359060200190929190505050611482565b005b610649611787565b604051808273ffffffffffffffffffffffffffffffffffffffff16815260200191505060405180910390f35b61067d6117ad565b604051808273ffffffffffffffffffffffffffffffffffffffff16815260200191505060405180910390f35b6107b6600480360360a08110156106bf57600080fd5b81019080803573ffffffffffffffffffffffffffffffffffffffff169060200190929190803573ffffffffffffffffffffffffffffffffffffffff16906020019092919080359060200190929190803590602001909291908035906020019064010000000081111561073057600080fd5b82018360208201111561074257600080fd5b8035906020019184600183028401116401000000008311171561076457600080fd5b91908080601f016020809104026020016040519081016040528093929190818152602001838380828437600081840152601f19601f8201169050808301925050505050505091929192905050506117d3565b60405180827bffffffffffffffffffffffffffffffffffffffffffffffffffffffff1916815260200191505060405180910390f35b6000806000837bffffffffffffffffffffffffffffffffffffffffffffffffffffffff19167bffffffffffffffffffffffffffffffffffffffffffffffffffffffff1916815260200190815260200160002060009054906101000a900460ff169050919050565b6001600560008381526020019081526020016000205410156108dc576040517f08c379a00000000000000000000000000000000000000000000000000000000081526004018080602001828103825260188152602001807f4e6f204d656d626572736869707320417661696c69626c65000000000000000081525060200191505060405180910390fd5b6108e4611817565b600460008381526020019081526020016000206040518060a00160405290816000820160009054906101000a900473ffffffffffffffffffffffffffffffffffffffff1673ffffffffffffffffffffffffffffffffffffffff1673ffffffffffffffffffffffffffffffffffffffff1681526020016000820160149054906101000a900460e01b7bffffffffffffffffffffffffffffffffffffffffffffffffffffffff19167bffffffffffffffffffffffffffffffffffffffffffffffffffffffff19168152602001600182016005806020026040519081016040528092919082600580156109e9576020028201915b8154815260200190600101908083116109d5575b5050505050815260200160068201548152602001600782015481525050905060005b8160400151506005811015610a97577f6d73672e73656e6465720000000000000000000000000000000000000000000082604001518260058110610a4b57fe5b60200201511415610a8a573373ffffffffffffffffffffffffffffffffffffffff1660001b82604001518260058110610a8057fe5b6020020181815250505b8080600101915050610a0b565b5060006060826000015173ffffffffffffffffffffffffffffffffffffffff1683602001518460400151600060058110610acd57fe5b60200201518560400151600160058110610ae357fe5b60200201518660400151600260058110610af957fe5b60200201518760400151600360058110610b0f57fe5b60200201518860400151600460058110610b2557fe5b602002015160405160200180877bffffffffffffffffffffffffffffffffffffffffffffffffffffffff1916815260040186815260200185815260200184815260200183815260200182815260200196505050505050506040516020818303038152906040526040518082805190602001908083835b60208310610bbe5780518252602082019150602081019050602083039250610b9b565b6001836020036101000a0380198251168184511680821785525050505050509050019150506000604051808303816000865af19150503d8060008114610c20576040519150601f19603f3d011682016040523d82523d6000602084013e610c25565b606091505b50915091506001151582151514610ca4576040517f08c379a00000000000000000000000000000000000000000000000000000000081526004018080602001828103825260188152602001807f436c61696d205472616e73616374696f6e204661696c6564000000000000000081525060200191505060405180910390fd5b600083606001511415610d33578260800151610cbf82611809565b14610d32576040517f08c379a00000000000000000000000000000000000000000000000000000000081526004018080602001828103825260118152602001807f436c61696d2052756c65204661696c656400000000000000000000000000000081525060200191505060405180910390fd5b5b600183606001511415610dc2578260800151610d4e82611809565b11610dc1576040517f08c379a00000000000000000000000000000000000000000000000000000000081526004018080602001828103825260118152602001807f436c61696d2052756c65204661696c656400000000000000000000000000000081525060200191505060405180910390fd5b5b600283606001511415610e51578260800151610ddd82611809565b10610e50576040517f08c379a00000000000000000000000000000000000000000000000000000000081526004018080602001828103825260118152602001807f436c61696d2052756c65204661696c656400000000000000000000000000000081525060200191505060405180910390fd5b5b600160009054906101000a900473ffffffffffffffffffffffffffffffffffffffff1673ffffffffffffffffffffffffffffffffffffffff1663f242432a3033876001604051806020016040528060008152506040518663ffffffff1660e01b8152600401808673ffffffffffffffffffffffffffffffffffffffff1681526020018573ffffffffffffffffffffffffffffffffffffffff16815260200184815260200183815260200180602001828103825283818151815260200191508051906020019080838360005b83811015610f37578082015181840152602081019050610f1c565b50505050905090810190601f168015610f645780820380516001836020036101000a031916815260200191505b509650505050505050600060405180830381600087803b158015610f8757600080fd5b505af1158015610f9b573d6000803e3d6000fd5b5050505050505050565b600260009054906101000a900473ffffffffffffffffffffffffffffffffffffffff1673ffffffffffffffffffffffffffffffffffffffff163373ffffffffffffffffffffffffffffffffffffffff161461104b576040517f08c379a00000000000000000000000000000000000000000000000000000000081526004018080602001828103825260298152602001806119016029913960400191505060405180910390fd5b6040518060a001604052808673ffffffffffffffffffffffffffffffffffffffff168152602001857bffffffffffffffffffffffffffffffffffffffffffffffffffffffff19168152602001848152602001838152602001828152506004600088815260200190815260200160002060008201518160000160006101000a81548173ffffffffffffffffffffffffffffffffffffffff021916908373ffffffffffffffffffffffffffffffffffffffff16021790555060208201518160000160146101000a81548163ffffffff021916908360e01c021790555060408201518160010190600561113c929190611881565b5060608201518160060155608082015181600701559050507f07b2674f321a5d5a3563b3d450ad8236e380eb72a8e7eb67df571e89a19939b8866004600089815260200190815260200160002060000160009054906101000a900473ffffffffffffffffffffffffffffffffffffffff16600460008a815260200190815260200160002060000160149054906101000a900460e01b600460008b8152602001908152602001600020600101600460008c815260200190815260200160002060060154600460008d815260200190815260200160002060070154604051808781526020018673ffffffffffffffffffffffffffffffffffffffff168152602001857bffffffffffffffffffffffffffffffffffffffffffffffffffffffff191681526020018460058015611284576020028201915b815481526020019060010190808311611270575b5050838152602001828152602001965050505050505060405180910390a1505050505050565b600260009054906101000a900473ffffffffffffffffffffffffffffffffffffffff1673ffffffffffffffffffffffffffffffffffffffff163373ffffffffffffffffffffffffffffffffffffffff1614611350576040517f08c379a00000000000000000000000000000000000000000000000000000000081526004018080602001828103825260298152602001806119016029913960400191505060405180910390fd5b80600360006101000a81548173ffffffffffffffffffffffffffffffffffffffff021916908373ffffffffffffffffffffffffffffffffffffffff16021790555050565b600080600090505b84518110156113f9578381815181106113b157fe5b6020026020010151600560008784815181106113c957fe5b6020026020010151815260200190815260200160002060008282540192505081905550808060010191505061139c565b5063bc197c8160e01b905095945050505050565b60056020528060005260406000206000915090505481565b60046020528060005260406000206000915090508060000160009054906101000a900473ffffffffffffffffffffffffffffffffffffffff16908060000160149054906101000a900460e01b908060060154908060070154905084565b600360009054906101000a900473ffffffffffffffffffffffffffffffffffffffff1673ffffffffffffffffffffffffffffffffffffffff163373ffffffffffffffffffffffffffffffffffffffff1614611528576040517f08c379a000000000000000000000000000000000000000000000000000000000815260040180806020018281038252602a81526020018061192a602a913960400191505060405180910390fd5b6040518060a001604052808673ffffffffffffffffffffffffffffffffffffffff168152602001857bffffffffffffffffffffffffffffffffffffffffffffffffffffffff19168152602001848152602001838152602001828152506004600088815260200190815260200160002060008201518160000160006101000a81548173ffffffffffffffffffffffffffffffffffffffff021916908373ffffffffffffffffffffffffffffffffffffffff16021790555060208201518160000160146101000a81548163ffffffff021916908360e01c0217905550604082015181600101906005611619929190611881565b5060608201518160060155608082015181600701559050507fef1c1c6f23b219347b3e97104160dd1bf5056e436b7b5ea97c89422e454b107e866004600089815260200190815260200160002060000160009054906101000a900473ffffffffffffffffffffffffffffffffffffffff16600460008a815260200190815260200160002060000160149054906101000a900460e01b600460008b8152602001908152602001600020600101600460008c815260200190815260200160002060060154600460008d815260200190815260200160002060070154604051808781526020018673ffffffffffffffffffffffffffffffffffffffff168152602001857bffffffffffffffffffffffffffffffffffffffffffffffffffffffff191681526020018460058015611761576020028201915b81548152602001906001019080831161174d575b5050838152602001828152602001965050505050505060405180910390a1505050505050565b600260009054906101000a900473ffffffffffffffffffffffffffffffffffffffff1681565b600360009054906101000a900473ffffffffffffffffffffffffffffffffffffffff1681565b600082600560008681526020019081526020016000206000828254019250508190555063f23a6e6160e01b905095945050505050565b600060208201519050919050565b6040518060a00160405280600073ffffffffffffffffffffffffffffffffffffffff16815260200160007bffffffffffffffffffffffffffffffffffffffffffffffffffffffff1916815260200161186d6118c1565b815260200160008152602001600081525090565b82600581019282156118b0579160200282015b828111156118af578251825591602001919060010190611894565b5b5090506118bd91906118e3565b5090565b6040518060a00160405280600590602082028036833780820191505090505090565b5b808211156118fc5760008160009055506001016118e4565b509056fe4f6e6c79204f72636150726f746f636f6c2063616e2063616c6c20746869732066756e6374696f6e2e4f6e6c7920566f74696e674d616e616765722063616e2063616c6c20746869732066756e6374696f6e2ea2646970667358221220a56e7267c14b47ee8c10760d7ca9efb5ea5f11fcef487e2e2701a7f2143a34ee64736f6c634300070400336080604052600060025534801561001557600080fd5b5060405161108b38038061108b8339818101604052602081101561003857600080fd5b8101908080519060200190929190505050336000806101000a81548173ffffffffffffffffffffffffffffffffffffffff021916908373ffffffffffffffffffffffffffffffffffffffff16021790555080600160006101000a81548173ffffffffffffffffffffffffffffffffffffffff021916908373ffffffffffffffffffffffffffffffffffffffff16021790555050610fb1806100da6000396000f3fe608060405234801561001057600080fd5b506004361061007d5760003560e01c806381ec8c561161005b57806381ec8c56146101da578063c1fa3b2e1461028b578063c9d27afe146102b9578063e42a31bb146102f35761007d565b80635293c748146100825780636bcb2f6b146100c45780637c6ab0261461010d575b600080fd5b6100c26004803603606081101561009857600080fd5b81019080803590602001909291908035906020019092919080359060200190929190505050610357565b005b6100f0600480360360208110156100da57600080fd5b810190808035906020019092919050505061040e565b604051808381526020018281526020019250505060405180910390f35b6101d8600480360361014081101561012457600080fd5b8101908080359060200190929190803573ffffffffffffffffffffffffffffffffffffffff16906020019092919080357bffffffffffffffffffffffffffffffffffffffffffffffffffffffff191690602001909291908060a001906005806020026040519081016040528092919082600560200280828437600081840152601f19601f82011690508083019250505050505091929192908035906020019092919080359060200190929190505050610432565b005b610206600480360360208110156101f057600080fd5b81019080803590602001909291905050506107db565b604051808a815260200189815260200188815260200187815260200186151581526020018573ffffffffffffffffffffffffffffffffffffffff168152602001847bffffffffffffffffffffffffffffffffffffffffffffffffffffffff19168152602001838152602001828152602001995050505050505050505060405180910390f35b6102b7600480360360208110156102a157600080fd5b8101908080359060200190929190505050610863565b005b6102f1600480360360408110156102cf57600080fd5b8101908080359060200190929190803515159060200190929190505050610c42565b005b61033f6004803603604081101561030957600080fd5b8101908080359060200190929190803573ffffffffffffffffffffffffffffffffffffffff169060200190929190505050610eca565b60405180821515815260200191505060405180910390f35b6040518060400160405280838152602001828152506003600085815260200190815260200160002060008201518160000155602082015181600101559050507fa73a17197f6d087ce0f66b3817665849460efbd8d147adbe1d85ce656738a79a836003600086815260200190815260200160002060000154600360008781526020019081526020016000206001015460405180848152602001838152602001828152602001935050505060405180910390a1505050565b60036020528060005260406000206000915090508060000154908060010154905082565b6004600087815260200190815260200160002060040160009054906101000a900460ff16156104ac576040517f08c379a0000000000000000000000000000000000000000000000000000000008152600401808060200182810382526025815260200180610f576025913960400191505060405180910390fd5b600160025401600281905550604051806101400160405280600254815260200160036000898152602001908152602001600020600001544301815260200160008152602001600081526020016001151581526020018673ffffffffffffffffffffffffffffffffffffffff168152602001857bffffffffffffffffffffffffffffffffffffffffffffffffffffffff1916815260200184815260200183815260200182815250600460008881526020019081526020016000206000820151816000015560208201518160010155604082015181600201556060820151816003015560808201518160040160006101000a81548160ff02191690831515021790555060a08201518160040160016101000a81548173ffffffffffffffffffffffffffffffffffffffff021916908373ffffffffffffffffffffffffffffffffffffffff16021790555060c08201518160040160156101000a81548163ffffffff021916908360e01c021790555060e08201518160050190600561062f929190610ef9565b5061010082015181600a015561012082015181600b01559050507f1fd1bcde774a562beecf34282a76fbca2db7a71bb7757241eedfcddfcb921578600460008881526020019081526020016000206000015487600460008a815260200190815260200160002060040160019054906101000a900473ffffffffffffffffffffffffffffffffffffffff16600460008b815260200190815260200160002060040160159054906101000a900460e01b600460008c8152602001908152602001600020600501600460008d8152602001908152602001600020600a0154600460008e8152602001908152602001600020600b015433604051808981526020018881526020018773ffffffffffffffffffffffffffffffffffffffff168152602001867bffffffffffffffffffffffffffffffffffffffffffffffffffffffff191681526020018560058015610797576020028201915b815481526020019060010190808311610783575b50508481526020018381526020018273ffffffffffffffffffffffffffffffffffffffff1681526020019850505050505050505060405180910390a1505050505050565b60046020528060005260406000206000915090508060000154908060010154908060020154908060030154908060040160009054906101000a900460ff16908060040160019054906101000a900473ffffffffffffffffffffffffffffffffffffffff16908060040160159054906101000a900460e01b9080600a01549080600b0154905089565b60006004600083815260200190815260200160002090508060040160009054906101000a900460ff166108fe576040517f08c379a000000000000000000000000000000000000000000000000000000000815260040180806020018281038252601c8152602001807f5468657265206973206e6f2063757272656e742070726f706f73616c0000000081525060200191505060405180910390fd5b80600101544311610977576040517f08c379a000000000000000000000000000000000000000000000000000000000815260040180806020018281038252601f8152602001807f54686520766f74696e6720706572696f6420686173206e6f7420656e6465640081525060200191505060405180910390fd5b6003600083815260200190815260200160002060010154816003015482600201540110610c3e57600081600201541115610bc85760008160040160006101000a81548160ff021916908315150217905550600160009054906101000a900473ffffffffffffffffffffffffffffffffffffffff1673ffffffffffffffffffffffffffffffffffffffff1663c3c56af7836004600086815260200190815260200160002060040160019054906101000a900473ffffffffffffffffffffffffffffffffffffffff166004600087815260200190815260200160002060040160159054906101000a900460e01b6004600088815260200190815260200160002060050160046000898152602001908152602001600020600a0154600460008a8152602001908152602001600020600b01546040518763ffffffff1660e01b8152600401808781526020018673ffffffffffffffffffffffffffffffffffffffff168152602001857bffffffffffffffffffffffffffffffffffffffffffffffffffffffff191681526020018460058015610b24576020028201915b815481526020019060010190808311610b10575b50508381526020018281526020019650505050505050600060405180830381600087803b158015610b5457600080fd5b505af1158015610b68573d6000803e3d6000fd5b50505050600115158160000154837f3ea246a2867dc3ef0a1f58eab097281abbf859ae77d455f6b0133e12ec1b19fa33604051808273ffffffffffffffffffffffffffffffffffffffff16815260200191505060405180910390a4610c3d565b60008160040160006101000a81548160ff021916908315150217905550600015158160000154837f3ea246a2867dc3ef0a1f58eab097281abbf859ae77d455f6b0133e12ec1b19fa33604051808273ffffffffffffffffffffffffffffffffffffffff16815260200191505060405180910390a45b5b5050565b60006004600084815260200190815260200160002090508060040160009054906101000a900460ff16610cdd576040517f08c379a000000000000000000000000000000000000000000000000000000000815260040180806020018281038252601c8152602001807f5468657265206973206e6f2063757272656e742070726f706f73616c0000000081525060200191505060405180910390fd5b600560008260000154815260200190815260200160002060003373ffffffffffffffffffffffffffffffffffffffff1673ffffffffffffffffffffffffffffffffffffffff16815260200190815260200160002060009054906101000a900460ff1615610db2576040517f08c379a000000000000000000000000000000000000000000000000000000000815260040180806020018281038252601d8152602001807f54686973206d656d6265722068617320616c726561647920766f74656400000081525060200191505060405180910390fd5b6001600560008360000154815260200190815260200160002060003373ffffffffffffffffffffffffffffffffffffffff1673ffffffffffffffffffffffffffffffffffffffff16815260200190815260200160002060006101000a81548160ff0219169083151502179055508115610e4c5760016004600085815260200190815260200160002060020154018160020181905550610e6f565b600160046000858152602001908152602001600020600301540181600301819055505b3373ffffffffffffffffffffffffffffffffffffffff168160000154847f8df957bc9ccb90cbc1f73fc8f866b2f64fa25c5581d4e1603c5cdc974aa2592d8560405180821515815260200191505060405180910390a4505050565b60056020528160005260406000206020528060005260406000206000915091509054906101000a900460ff1681565b8260058101928215610f28579160200282015b82811115610f27578251825591602001919060010190610f0c565b5b509050610f359190610f39565b5090565b5b80821115610f52576000816000905550600101610f3a565b509056fe54686572652069732063757272656e746c7920612070726f706f73616c2070656e64696e67a2646970667358221220769b988c5f9cb0adcf61c34080f94ef00bf0e6e55687c9a8a68c284f9f70074364736f6c63430007040033",
  "linkReferences": {},
  "deployedLinkReferences": {},
  "address": "0x9fE46736679d2D9a65F0992F2272dE9f3c7fa6e0"
}